{
  "contractName": "Elective",
  "abi": [
    {
      "inputs": [],
      "payable": false,
      "stateMutability": "nonpayable",
      "type": "constructor"
    },
    {
      "anonymous": false,
      "inputs": [
        {
          "indexed": true,
          "internalType": "uint256",
          "name": "_courseId",
          "type": "uint256"
        }
      ],
      "name": "enrolledEvent",
      "type": "event"
    },
    {
      "constant": true,
      "inputs": [
        {
          "internalType": "uint256",
          "name": "",
          "type": "uint256"
        }
      ],
      "name": "courses",
      "outputs": [
        {
          "internalType": "uint256",
          "name": "code",
          "type": "uint256"
        },
        {
          "internalType": "string",
          "name": "course_name",
          "type": "string"
        },
        {
          "internalType": "uint256",
          "name": "enrollments",
          "type": "uint256"
        }
      ],
      "payable": false,
      "stateMutability": "view",
      "type": "function"
    },
    {
      "constant": true,
      "inputs": [],
      "name": "coursesCount",
      "outputs": [
        {
          "internalType": "uint256",
          "name": "",
          "type": "uint256"
        }
      ],
      "payable": false,
      "stateMutability": "view",
      "type": "function"
    },
    {
      "constant": true,
      "inputs": [
        {
          "internalType": "address",
          "name": "",
          "type": "address"
        }
      ],
      "name": "students",
      "outputs": [
        {
          "internalType": "bool",
          "name": "",
          "type": "bool"
        }
      ],
      "payable": false,
      "stateMutability": "view",
      "type": "function"
    },
    {
      "constant": false,
      "inputs": [
        {
          "internalType": "uint256",
          "name": "_courseId",
          "type": "uint256"
        }
      ],
      "name": "enroll",
      "outputs": [],
      "payable": false,
      "stateMutability": "nonpayable",
      "type": "function"
    }
  ],
  "bytecode": "0x608060405234801561001057600080fd5b506100556040518060400160405280601a81526020017f496e74726f64756374696f6e20746f20426c6f636b636861696e00000000000081525061012660201b60201c565b6100996040518060400160405280601081526020017f4d616368696e65204c6561726e696e670000000000000000000000000000000081525061012660201b60201c565b6100dd6040518060400160405280601b81526020017f4e61747572616c204c616e67756167652050726f63657373696e67000000000081525061012660201b60201c565b6101216040518060400160405280601481526020017f436f676e69746976652050737963686f6c6f677900000000000000000000000081525061012660201b60201c565b610247565b6002600081548092919060010191905055506040518060600160405280600254815260200182815260200160008152506001600060025481526020019081526020016000206000820151816000015560208201518160010190805190602001906101919291906101a2565b506040820151816002015590505050565b828054600181600116156101000203166002900490600052602060002090601f016020900481019282601f106101e357805160ff1916838001178555610211565b82800160010185558215610211579182015b828111156102105782518255916020019190600101906101f5565b5b50905061021e9190610222565b5090565b61024491905b80821115610240576000816000905550600101610228565b5090565b90565b6103e9806102566000396000f3fe608060405234801561001057600080fd5b506004361061004c5760003560e01c8063042799881461005157806396f979d21461006f578063a6c807a914610124578063f57d585b14610180575b600080fd5b6100596101ae565b6040518082815260200191505060405180910390f35b61009b6004803603602081101561008557600080fd5b81019080803590602001909291905050506101b4565b6040518084815260200180602001838152602001828103825284818151815260200191508051906020019080838360005b838110156100e75780820151818401526020810190506100cc565b50505050905090810190601f1680156101145780820380516001836020036101000a031916815260200191505b5094505050505060405180910390f35b6101666004803603602081101561013a57600080fd5b81019080803573ffffffffffffffffffffffffffffffffffffffff169060200190929190505050610276565b604051808215151515815260200191505060405180910390f35b6101ac6004803603602081101561019657600080fd5b8101908080359060200190929190505050610296565b005b60025481565b6001602052806000526040600020600091509050806000015490806001018054600181600116156101000203166002900480601f0160208091040260200160405190810160405280929190818152602001828054600181600116156101000203166002900480156102665780601f1061023b57610100808354040283529160200191610266565b820191906000526020600020905b81548152906001019060200180831161024957829003601f168201915b5050505050908060020154905083565b60006020528060005260406000206000915054906101000a900460ff1681565b6000803373ffffffffffffffffffffffffffffffffffffffff1673ffffffffffffffffffffffffffffffffffffffff16815260200190815260200160002060009054906101000a900460ff16156102ec57600080fd5b6000811180156102fe57506002548111155b61030757600080fd5b60016000803373ffffffffffffffffffffffffffffffffffffffff1673ffffffffffffffffffffffffffffffffffffffff16815260200190815260200160002060006101000a81548160ff0219169083151502179055506001600082815260200190815260200160002060020160008154809291906001019190505550807fdf179c208cb8987264c4774d74e00786dec7ff31a029374d0202f5a795c10d6e60405160405180910390a25056fea265627a7a72315820fc75096da9cdcc50f1f84907c1f852ec9c291da65d44adfef28aff1abc3fe4f564736f6c63430005100032",
  "source": "// SPDX-License-Identifier: MIT\r\npragma solidity >=0.4.22 <0.9.0; //States the Solidity version being used\r\n\r\n//SMART CONTRACT\r\n//Our smart contract which reads and writes data to the blockchain \r\n//It contains all the business logic of our application\r\n//It is written in the Solidity programming language and uses tools of truffle framework\r\n//Smart contract will be deployed on a local Ethereum blockchain\r\n\r\n//Dependencies used:\r\n//Node Package Manager(npm)\r\n//Truffle Framework\r\n//Ganache\r\n//Metamask extension for Google Chrome in order to use the Ethereum blockchain and \r\n//to connect to our local Ethereum blockchain with our personal account, and interact with our smart contract.  \r\n//Used Ganache which is a local in memory blockchain which provides 10 external accounts with addresses\r\n//on the local ethereum blockchain with each account having 100 fake Ethers \r\n\r\n\r\n//Declaration of the smart contract named \"Elective\"\r\ncontract Elective {\r\n    // Structure that represents a course and the attributes of the course\r\n    // Three attributes of the course namely its code, name and enrollments \r\n    struct Course {\r\n        uint code;           // course code\r\n        string course_name;  // course name\r\n        uint enrollments;    // course enrollment count\r\n    }\r\n\r\n    // To store the students in a map which is a associative array or a hash to store key value pairs\r\n    //Here key is the student account address and the value is the boolean \r\n    //Provides us with an easy look up for each student using its respective account address\r\n    // to find if the student has enrolled or not\r\n    //public visibility to obtain a free getter function\r\n    mapping(address => bool) public students;\r\n    // To store the courses in a map which is a associative array or a hash to store key value pairs\r\n    //Here key is the course code and the value is the course structure\r\n    //Provides us with an easy look up for each course using its respective code\r\n    //public visibility to obtain a free getter function\r\n    mapping(uint => Course) public courses;\r\n    // To store the course count in the mapping\r\n    // This state variable is needed because there is no way to find the count of values in the mapping\r\n    // and also no way to iterate over the mapping\r\n    // since a non-existent key look up in the map also returns an empty course structure\r\n    uint public coursesCount;\r\n\r\n    // enrolled event\r\n    event enrolledEvent (\r\n        uint indexed _courseId\r\n    );\r\n    \r\n    //Constructor function which is called whenever our smart contract is deployed on the blockchain\r\n    //Here we will add four courses \r\n    constructor () public {\r\n        addCourse(\"Introduction to Blockchain\");\r\n        addCourse(\"Machine Learning\");\r\n        addCourse(\"Natural Language Processing\");\r\n        addCourse(\"Cognitive Psychology\");\r\n    }\r\n    \r\n    //This function receives the name of the course and adds the course into the map with key value\r\n    // as the coursesCount\r\n    // then increments the count of the courses\r\n    // It finally adds the course into the map with coursesCount as the course code, \r\n    // _name as the course name\r\n    // and initializes enrollment count to 0 for the course\r\n    function addCourse (string memory _name) private {\r\n        coursesCount ++;\r\n        courses[coursesCount] = Course(coursesCount, _name, 0);\r\n    }\r\n    \r\n    //This function is used to increment the enrollment count for a course by 1\r\n    // It accepts one argument namely _courseId which represents the course code\r\n    // It has a public visibility so that an external account is able to call it\r\n    // This function will also add the account of the student who has enrolled \r\n    // into the student enrolled mapping\r\n    //It retrieves the account address of the caller of the function(student enrolled)\r\n    // by using the global variable msg.sender which is provided by Solidity\r\n     function enroll (uint _courseId) public {\r\n        // check that they haven't enrolled before\r\n        require(!students[msg.sender]);\r\n\r\n        // check for a valid course\r\n        require(_courseId > 0 && _courseId <= coursesCount);\r\n\r\n        // store that the student has enrolled\r\n        students[msg.sender] = true;\r\n\r\n        // increment the course enroll count\r\n        courses[_courseId].enrollments ++;\r\n\r\n        // trigger the enrolled event\r\n        emit enrolledEvent(_courseId);\r\n    }\r\n}\r\n",
  "sourcePath": "C:\\Users\\parul\\polling\\contracts\\Elective.sol",
  "compiler": {
    "name": "solc",
    "version": "0.5.16+commit.9c3226ce.Emscripten.clang"
  },
  "schemaVersion": "3.4.9",
  "updatedAt": "2022-08-17T22:24:30.796Z",
  "networkType": "ethereum",
  "devdoc": {
    "methods": {}
  },
  "userdoc": {
    "methods": {}
  }
}